{
  "_format": "hh-sol-artifact-1",
  "contractName": "P2PEscrow",
  "sourceName": "contracts/P2PEscrow.sol",
  "abi": [
    {
      "inputs": [],
      "stateMutability": "nonpayable",
      "type": "constructor"
    },
    {
      "anonymous": false,
      "inputs": [
        {
          "indexed": false,
          "internalType": "uint256",
          "name": "newFee",
          "type": "uint256"
        }
      ],
      "name": "FeeUpdated",
      "type": "event"
    },
    {
      "anonymous": false,
      "inputs": [
        {
          "indexed": true,
          "internalType": "address",
          "name": "previousOwner",
          "type": "address"
        },
        {
          "indexed": true,
          "internalType": "address",
          "name": "newOwner",
          "type": "address"
        }
      ],
      "name": "OwnershipTransferred",
      "type": "event"
    },
    {
      "anonymous": false,
      "inputs": [
        {
          "indexed": false,
          "internalType": "string",
          "name": "paymentMethod",
          "type": "string"
        }
      ],
      "name": "PaymentMethodAdded",
      "type": "event"
    },
    {
      "anonymous": false,
      "inputs": [
        {
          "indexed": false,
          "internalType": "string",
          "name": "paymentMethod",
          "type": "string"
        }
      ],
      "name": "PaymentMethodRemoved",
      "type": "event"
    },
    {
      "anonymous": false,
      "inputs": [
        {
          "indexed": true,
          "internalType": "address",
          "name": "token",
          "type": "address"
        }
      ],
      "name": "TokenAdded",
      "type": "event"
    },
    {
      "anonymous": false,
      "inputs": [
        {
          "indexed": true,
          "internalType": "address",
          "name": "token",
          "type": "address"
        }
      ],
      "name": "TokenRemoved",
      "type": "event"
    },
    {
      "anonymous": false,
      "inputs": [
        {
          "indexed": true,
          "internalType": "uint256",
          "name": "tradeId",
          "type": "uint256"
        }
      ],
      "name": "TradeCancelled",
      "type": "event"
    },
    {
      "anonymous": false,
      "inputs": [
        {
          "indexed": true,
          "internalType": "uint256",
          "name": "tradeId",
          "type": "uint256"
        }
      ],
      "name": "TradeCompleted",
      "type": "event"
    },
    {
      "anonymous": false,
      "inputs": [
        {
          "indexed": true,
          "internalType": "uint256",
          "name": "tradeId",
          "type": "uint256"
        },
        {
          "indexed": true,
          "internalType": "address",
          "name": "seller",
          "type": "address"
        },
        {
          "indexed": false,
          "internalType": "uint256",
          "name": "amount",
          "type": "uint256"
        },
        {
          "indexed": false,
          "internalType": "string",
          "name": "paymentMethod",
          "type": "string"
        }
      ],
      "name": "TradeCreated",
      "type": "event"
    },
    {
      "anonymous": false,
      "inputs": [
        {
          "indexed": true,
          "internalType": "uint256",
          "name": "tradeId",
          "type": "uint256"
        },
        {
          "indexed": false,
          "internalType": "address",
          "name": "disputeInitiator",
          "type": "address"
        }
      ],
      "name": "TradeDisputed",
      "type": "event"
    },
    {
      "anonymous": false,
      "inputs": [
        {
          "indexed": true,
          "internalType": "uint256",
          "name": "tradeId",
          "type": "uint256"
        },
        {
          "indexed": true,
          "internalType": "address",
          "name": "buyer",
          "type": "address"
        }
      ],
      "name": "TradeLocked",
      "type": "event"
    },
    {
      "inputs": [],
      "name": "DISPUTE_PERIOD",
      "outputs": [
        {
          "internalType": "uint256",
          "name": "",
          "type": "uint256"
        }
      ],
      "stateMutability": "view",
      "type": "function"
    },
    {
      "inputs": [],
      "name": "MAX_FEE",
      "outputs": [
        {
          "internalType": "uint256",
          "name": "",
          "type": "uint256"
        }
      ],
      "stateMutability": "view",
      "type": "function"
    },
    {
      "inputs": [
        {
          "internalType": "string",
          "name": "_method",
          "type": "string"
        }
      ],
      "name": "addPaymentMethod",
      "outputs": [],
      "stateMutability": "nonpayable",
      "type": "function"
    },
    {
      "inputs": [
        {
          "internalType": "address",
          "name": "_token",
          "type": "address"
        }
      ],
      "name": "addSupportedToken",
      "outputs": [],
      "stateMutability": "nonpayable",
      "type": "function"
    },
    {
      "inputs": [
        {
          "internalType": "uint256",
          "name": "_tradeId",
          "type": "uint256"
        }
      ],
      "name": "cancelTrade",
      "outputs": [],
      "stateMutability": "nonpayable",
      "type": "function"
    },
    {
      "inputs": [
        {
          "internalType": "uint256",
          "name": "_tradeId",
          "type": "uint256"
        }
      ],
      "name": "completeTrade",
      "outputs": [],
      "stateMutability": "nonpayable",
      "type": "function"
    },
    {
      "inputs": [
        {
          "internalType": "address",
          "name": "_token",
          "type": "address"
        },
        {
          "internalType": "uint256",
          "name": "_amount",
          "type": "uint256"
        },
        {
          "internalType": "uint256",
          "name": "_price",
          "type": "uint256"
        },
        {
          "internalType": "string",
          "name": "_paymentMethod",
          "type": "string"
        },
        {
          "internalType": "string",
          "name": "_paymentDetails",
          "type": "string"
        },
        {
          "internalType": "bool",
          "name": "_isMinPay",
          "type": "bool"
        }
      ],
      "name": "createTrade",
      "outputs": [
        {
          "internalType": "uint256",
          "name": "",
          "type": "uint256"
        }
      ],
      "stateMutability": "nonpayable",
      "type": "function"
    },
    {
      "inputs": [
        {
          "internalType": "uint256",
          "name": "_tradeId",
          "type": "uint256"
        }
      ],
      "name": "disputeTrade",
      "outputs": [],
      "stateMutability": "nonpayable",
      "type": "function"
    },
    {
      "inputs": [],
      "name": "escrowFee",
      "outputs": [
        {
          "internalType": "uint256",
          "name": "",
          "type": "uint256"
        }
      ],
      "stateMutability": "view",
      "type": "function"
    },
    {
      "inputs": [
        {
          "internalType": "uint256",
          "name": "_tradeId",
          "type": "uint256"
        }
      ],
      "name": "getTrade",
      "outputs": [
        {
          "components": [
            {
              "internalType": "address",
              "name": "seller",
              "type": "address"
            },
            {
              "internalType": "address",
              "name": "buyer",
              "type": "address"
            },
            {
              "internalType": "address",
              "name": "token",
              "type": "address"
            },
            {
              "internalType": "uint256",
              "name": "amount",
              "type": "uint256"
            },
            {
              "internalType": "uint256",
              "name": "price",
              "type": "uint256"
            },
            {
              "internalType": "string",
              "name": "paymentMethod",
              "type": "string"
            },
            {
              "internalType": "string",
              "name": "paymentDetails",
              "type": "string"
            },
            {
              "internalType": "uint256",
              "name": "createdAt",
              "type": "uint256"
            },
            {
              "internalType": "enum P2PEscrow.TradeStatus",
              "name": "status",
              "type": "uint8"
            },
            {
              "internalType": "bool",
              "name": "isMinPay",
              "type": "bool"
            }
          ],
          "internalType": "struct P2PEscrow.Trade",
          "name": "",
          "type": "tuple"
        }
      ],
      "stateMutability": "view",
      "type": "function"
    },
    {
      "inputs": [
        {
          "internalType": "string",
          "name": "_method",
          "type": "string"
        }
      ],
      "name": "isPaymentMethodSupported",
      "outputs": [
        {
          "internalType": "bool",
          "name": "",
          "type": "bool"
        }
      ],
      "stateMutability": "view",
      "type": "function"
    },
    {
      "inputs": [
        {
          "internalType": "address",
          "name": "_token",
          "type": "address"
        }
      ],
      "name": "isTokenSupported",
      "outputs": [
        {
          "internalType": "bool",
          "name": "",
          "type": "bool"
        }
      ],
      "stateMutability": "view",
      "type": "function"
    },
    {
      "inputs": [
        {
          "internalType": "uint256",
          "name": "_tradeId",
          "type": "uint256"
        }
      ],
      "name": "lockTrade",
      "outputs": [],
      "stateMutability": "nonpayable",
      "type": "function"
    },
    {
      "inputs": [],
      "name": "owner",
      "outputs": [
        {
          "internalType": "address",
          "name": "",
          "type": "address"
        }
      ],
      "stateMutability": "view",
      "type": "function"
    },
    {
      "inputs": [
        {
          "internalType": "string",
          "name": "_method",
          "type": "string"
        }
      ],
      "name": "removePaymentMethod",
      "outputs": [],
      "stateMutability": "nonpayable",
      "type": "function"
    },
    {
      "inputs": [
        {
          "internalType": "address",
          "name": "_token",
          "type": "address"
        }
      ],
      "name": "removeSupportedToken",
      "outputs": [],
      "stateMutability": "nonpayable",
      "type": "function"
    },
    {
      "inputs": [],
      "name": "renounceOwnership",
      "outputs": [],
      "stateMutability": "nonpayable",
      "type": "function"
    },
    {
      "inputs": [
        {
          "internalType": "string",
          "name": "",
          "type": "string"
        }
      ],
      "name": "supportedPaymentMethods",
      "outputs": [
        {
          "internalType": "bool",
          "name": "",
          "type": "bool"
        }
      ],
      "stateMutability": "view",
      "type": "function"
    },
    {
      "inputs": [
        {
          "internalType": "address",
          "name": "",
          "type": "address"
        }
      ],
      "name": "supportedTokens",
      "outputs": [
        {
          "internalType": "bool",
          "name": "",
          "type": "bool"
        }
      ],
      "stateMutability": "view",
      "type": "function"
    },
    {
      "inputs": [],
      "name": "tradeCount",
      "outputs": [
        {
          "internalType": "uint256",
          "name": "",
          "type": "uint256"
        }
      ],
      "stateMutability": "view",
      "type": "function"
    },
    {
      "inputs": [
        {
          "internalType": "uint256",
          "name": "",
          "type": "uint256"
        }
      ],
      "name": "trades",
      "outputs": [
        {
          "internalType": "address",
          "name": "seller",
          "type": "address"
        },
        {
          "internalType": "address",
          "name": "buyer",
          "type": "address"
        },
        {
          "internalType": "address",
          "name": "token",
          "type": "address"
        },
        {
          "internalType": "uint256",
          "name": "amount",
          "type": "uint256"
        },
        {
          "internalType": "uint256",
          "name": "price",
          "type": "uint256"
        },
        {
          "internalType": "string",
          "name": "paymentMethod",
          "type": "string"
        },
        {
          "internalType": "string",
          "name": "paymentDetails",
          "type": "string"
        },
        {
          "internalType": "uint256",
          "name": "createdAt",
          "type": "uint256"
        },
        {
          "internalType": "enum P2PEscrow.TradeStatus",
          "name": "status",
          "type": "uint8"
        },
        {
          "internalType": "bool",
          "name": "isMinPay",
          "type": "bool"
        }
      ],
      "stateMutability": "view",
      "type": "function"
    },
    {
      "inputs": [
        {
          "internalType": "address",
          "name": "newOwner",
          "type": "address"
        }
      ],
      "name": "transferOwnership",
      "outputs": [],
      "stateMutability": "nonpayable",
      "type": "function"
    },
    {
      "inputs": [
        {
          "internalType": "uint256",
          "name": "_newFee",
          "type": "uint256"
        }
      ],
      "name": "updateEscrowFee",
      "outputs": [],
      "stateMutability": "nonpayable",
      "type": "function"
    }
  ],
  "bytecode": "0x6080604052600160065534801561001557600080fd5b506001600055610024336100c5565b6001600460405161004190654d696e50617960d01b815260060190565b90815260408051918290036020018220805493151560ff199485161790556c2130b735902a3930b739b332b960991b82526004600d8301819052815192839003602d0183208054851660019081179091556b4d6f62696c65204d6f6e657960a01b8452600c840191909152905191829003602c019091208054909216179055610117565b600180546001600160a01b038381166001600160a01b0319831681179093556040519116919082907f8be0079c531659141344cd1fd0a4f28419497f9722a3daafe3b4186f6b6457e090600090a35050565b611d40806101266000396000f3fe608060405234801561001057600080fd5b506004361061014d5760003560e01c806378ec61e0116100c3578063bc063e1a1161007c578063bc063e1a1461030f578063bd55022a14610317578063cc9e255614610320578063ccf2f6b114610333578063e0d5891114610346578063f2fde38b1461035957600080fd5b806378ec61e0146102835780638ba9f708146102b15780638da5cb5b146102c4578063a0428e43146102df578063a5bbe22b146102f2578063ad221551146102fc57600080fd5b806368c4ac261161011557806368c4ac26146101ef5780636a5b428b146102125780636d69fcaf14610229578063715018a61461023c57806375151b6314610244578063763191901461027057600080fd5b806309ec6cc7146101525780631e6c598e146101675780632db25e05146101995780633d2098d9146101b95780633e1bc7a5146101cc575b600080fd5b6101656101603660046116df565b61036c565b005b61017a6101753660046116df565b6105aa565b6040516101909a99989796959493929190611780565b60405180910390f35b6101ac6101a73660046116df565b610721565b6040516101909190611806565b6101656101c73660046116df565b610970565b6101df6101da36600461197a565b6109f4565b6040519015158152602001610190565b6101df6101fd3660046119d3565b60036020526000908152604090205460ff1681565b61021b60065481565b604051908152602001610190565b6101656102373660046119d3565b610a1f565b610165610ac1565b6101df6102523660046119d3565b6001600160a01b031660009081526003602052604090205460ff1690565b61016561027e3660046119d3565b610ad5565b6101df61029136600461197a565b805160208183018101805160048252928201919093012091525460ff1681565b6101656102bf3660046116df565b610b26565b6001546040516001600160a01b039091168152602001610190565b6101656102ed3660046116df565b610c8c565b61021b6201518081565b61016561030a3660046116df565b610dd0565b61021b606481565b61021b60055481565b61021b61032e366004611a03565b6110e0565b61016561034136600461197a565b611491565b61016561035436600461197a565b6114f9565b6101656103673660046119d3565b611561565b8060055481106103975760405162461bcd60e51b815260040161038e90611a9e565b60405180910390fd5b61039f6115da565b600082815260026020526040812090600882015460ff1660048111156103c7576103c7611748565b148061040857506001600882015460ff1660048111156103e9576103e9611748565b14801561040857506201518081600701546104049190611ade565b4210155b61044a5760405162461bcd60e51b815260206004820152601360248201527243616e6e6f742063616e63656c20747261646560681b604482015260640161038e565b80546001600160a01b0316331461049c5760405162461bcd60e51b815260206004820152601660248201527513db9b1e481cd95b1b195c8818d85b8818d85b98d95b60521b604482015260640161038e565b60028101548154600383015460405163a9059cbb60e01b81526001600160a01b0392831660048201526024810191909152911690819063a9059cbb906044016020604051808303816000875af11580156104fa573d6000803e3d6000fd5b505050506040513d601f19601f8201168201806040525081019061051e9190611af7565b6105605760405162461bcd60e51b8152602060048201526013602482015272151bdad95b881c995d1d5c9b8819985a5b1959606a1b604482015260640161038e565b60088201805460ff1916600317905560405184907f4e02dcf02d8510f6c8a6878a3c54ae6e2bfbf552df29221d7a1eed173a6b1ae790600090a250506105a66001600055565b5050565b60026020819052600091825260409091208054600182015492820154600383015460048401546005850180546001600160a01b03958616978616969490951694929391926105f790611b14565b80601f016020809104026020016040519081016040528092919081815260200182805461062390611b14565b80156106705780601f1061064557610100808354040283529160200191610670565b820191906000526020600020905b81548152906001019060200180831161065357829003601f168201915b50505050509080600601805461068590611b14565b80601f01602080910402602001604051908101604052809291908181526020018280546106b190611b14565b80156106fe5780601f106106d3576101008083540402835291602001916106fe565b820191906000526020600020905b8154815290600101906020018083116106e157829003601f168201915b50505050600783015460089093015491929160ff8082169250610100909104168a565b604080516101408101825260008082526020820181905291810182905260608082018390526080820183905260a0820181905260c082015260e08101829052610100810182905261012081019190915260055482106107925760405162461bcd60e51b815260040161038e90611a9e565b60008281526002602081815260409283902083516101408101855281546001600160a01b03908116825260018301548116938201939093529281015490911692820192909252600382015460608201526004820154608082015260058201805491929160a08401919061080490611b14565b80601f016020809104026020016040519081016040528092919081815260200182805461083090611b14565b801561087d5780601f106108525761010080835404028352916020019161087d565b820191906000526020600020905b81548152906001019060200180831161086057829003601f168201915b5050505050815260200160068201805461089690611b14565b80601f01602080910402602001604051908101604052809291908181526020018280546108c290611b14565b801561090f5780601f106108e45761010080835404028352916020019161090f565b820191906000526020600020905b8154815290600101906020018083116108f257829003601f168201915b505050918352505060078201546020820152600882015460409091019060ff16600481111561094057610940611748565b600481111561095157610951611748565b815260089190910154610100900460ff16151560209091015292915050565b610978611633565b60648111156109b85760405162461bcd60e51b815260206004820152600c60248201526b08ccaca40e8dede40d0d2ced60a31b604482015260640161038e565b60068190556040518181527f8c4d35e54a3f2ef1134138fd8ea3daee6a3c89e10d2665996babdf70261e2c76906020015b60405180910390a150565b6000600482604051610a069190611b4e565b9081526040519081900360200190205460ff1692915050565b610a27611633565b6001600160a01b038116610a755760405162461bcd60e51b8152602060048201526015602482015274496e76616c696420746f6b656e206164647265737360581b604482015260640161038e565b6001600160a01b038116600081815260036020526040808220805460ff19166001179055517f784c8f4dbf0ffedd6e72c76501c545a70f8b203b30a26ce542bf92ba87c248a49190a250565b610ac9611633565b610ad3600061168d565b565b610add611633565b6001600160a01b038116600081815260036020526040808220805460ff19169055517f4c910b69fe65a61f7531b9c5042b2329ca7179c77290aa7e2eb3afa3c8511fd39190a250565b806005548110610b485760405162461bcd60e51b815260040161038e90611a9e565b60008281526002602052604090205482906001600160a01b0316331480610b8857506000818152600260205260409020600101546001600160a01b031633145b610bcc5760405162461bcd60e51b8152602060048201526015602482015274139bdd081d1c985919481c185c9d1a58da5c185b9d605a1b604482015260640161038e565b60008381526002602052604090206001600882015460ff166004811115610bf557610bf5611748565b14610c425760405162461bcd60e51b815260206004820152601e60248201527f43616e206f6e6c792064697370757465206c6f636b6564207472616465730000604482015260640161038e565b60088101805460ff1916600417905560405133815284907f1716a391765fa98cf509fa991d6f31a43dcb9c128bdceca13baf8ae746c4d09c9060200160405180910390a250505050565b806005548110610cae5760405162461bcd60e51b815260040161038e90611a9e565b610cb66115da565b600082815260026020526040812090600882015460ff166004811115610cde57610cde611748565b14610d1e5760405162461bcd60e51b815260206004820152601060248201526f5472616465206e6f742061637469766560801b604482015260640161038e565b8054336001600160a01b0390911603610d725760405162461bcd60e51b815260206004820152601660248201527529b2b63632b91031b0b73737ba10313290313abcb2b960511b604482015260640161038e565b600180820180546001600160a01b0319163317905560088201805460ff191682800217905550604051339084907f3064d251e2ecace2bbcde9a90a584385124b49269c0638b38013b9652ac68c0990600090a3506105a66001600055565b806005548110610df25760405162461bcd60e51b815260040161038e90611a9e565b610dfa6115da565b60008281526002602052604090206001600882015460ff166004811115610e2357610e23611748565b14610e635760405162461bcd60e51b815260206004820152601060248201526f151c985919481b9bdd081b1bd8dad95960821b604482015260640161038e565b80546001600160a01b03163314610ebc5760405162461bcd60e51b815260206004820152601e60248201527f4f6e6c792073656c6c65722063616e20636f6d706c6574652074726164650000604482015260640161038e565b60006103e86006548360030154610ed39190611b6a565b610edd9190611b81565b90506000818360030154610ef19190611ba3565b6002840154600185015460405163a9059cbb60e01b81526001600160a01b039182166004820152602481018490529293501690819063a9059cbb906044016020604051808303816000875af1158015610f4e573d6000803e3d6000fd5b505050506040513d601f19601f82011682018060405250810190610f729190611af7565b610fbe5760405162461bcd60e51b815260206004820152601860248201527f5472616e7366657220746f206275796572206661696c65640000000000000000604482015260640161038e565b821561109857806001600160a01b031663a9059cbb610fe56001546001600160a01b031690565b6040516001600160e01b031960e084901b1681526001600160a01b039091166004820152602481018690526044016020604051808303816000875af1158015611032573d6000803e3d6000fd5b505050506040513d601f19601f820116820180604052508101906110569190611af7565b6110985760405162461bcd60e51b8152602060048201526013602482015272119959481d1c985b9cd9995c8819985a5b1959606a1b604482015260640161038e565b60088401805460ff1916600217905560405186907f60f91a26281f20fb528663f4da55773c83e2ee8a7a5dddb6d1753749e81dc49b90600090a2505050506105a66001600055565b60006110ea6115da565b6001600160a01b03871660009081526003602052604090205460ff166111485760405162461bcd60e51b8152602060048201526013602482015272151bdad95b881b9bdd081cdd5c1c1bdc9d1959606a1b604482015260640161038e565b6004846040516111589190611b4e565b9081526040519081900360200190205460ff166111b75760405162461bcd60e51b815260206004820152601c60248201527f5061796d656e74206d6574686f64206e6f7420737570706f7274656400000000604482015260640161038e565b600086116112075760405162461bcd60e51b815260206004820152601d60248201527f416d6f756e74206d7573742062652067726561746572207468616e2030000000604482015260640161038e565b6040516323b872dd60e01b81523360048201523060248201526044810187905287906001600160a01b038216906323b872dd906064016020604051808303816000875af115801561125c573d6000803e3d6000fd5b505050506040513d601f19601f820116820180604052508101906112809190611af7565b6112c45760405162461bcd60e51b8152602060048201526015602482015274151bdad95b881d1c985b9cd9995c8819985a5b1959605a1b604482015260640161038e565b60058054600091826112d583611bb6565b919050559050604051806101400160405280336001600160a01b0316815260200160006001600160a01b031681526020018a6001600160a01b031681526020018981526020018881526020018781526020018681526020014281526020016000600481111561134657611346611748565b815285151560209182015260008381526002808352604091829020845181546001600160a01b03199081166001600160a01b039283161783559486015160018301805487169183169190911790559285015191810180549094169190921617909155606082015160038201556080820151600482015560a082015160058201906113d09082611c1e565b5060c082015160068201906113e59082611c1e565b5060e0820151600782015561010082015160088201805460ff1916600183600481111561141457611414611748565b02179055506101209190910151600890910180549115156101000261ff0019909216919091179055604051339082907f548f81df6995b690c3866ac84e679bfea78b9aec5627be564551780298ed34d690611472908c908b90611cde565b60405180910390a39150506114876001600055565b9695505050505050565b611499611633565b60016004826040516114ab9190611b4e565b908152604051908190036020018120805492151560ff19909316929092179091557f12d9f64cb9fe5cfbedd404765000f5308084dc4365283f2fd8334dfc55f4d078906109e9908390611cf7565b611501611633565b60006004826040516115139190611b4e565b908152604051908190036020018120805492151560ff19909316929092179091557fa6155147946bba2b28d44bcf4813fd6eccee75ca89edc40c8c15d2b60d9e6bdf906109e9908390611cf7565b611569611633565b6001600160a01b0381166115ce5760405162461bcd60e51b815260206004820152602660248201527f4f776e61626c653a206e6577206f776e657220697320746865207a65726f206160448201526564647265737360d01b606482015260840161038e565b6115d78161168d565b50565b60026000540361162c5760405162461bcd60e51b815260206004820152601f60248201527f5265656e7472616e637947756172643a207265656e7472616e742063616c6c00604482015260640161038e565b6002600055565b6001546001600160a01b03163314610ad35760405162461bcd60e51b815260206004820181905260248201527f4f776e61626c653a2063616c6c6572206973206e6f7420746865206f776e6572604482015260640161038e565b600180546001600160a01b038381166001600160a01b0319831681179093556040519116919082907f8be0079c531659141344cd1fd0a4f28419497f9722a3daafe3b4186f6b6457e090600090a35050565b6000602082840312156116f157600080fd5b5035919050565b60005b838110156117135781810151838201526020016116fb565b50506000910152565b600081518084526117348160208601602086016116f8565b601f01601f19169290920160200192915050565b634e487b7160e01b600052602160045260246000fd5b6005811061177c57634e487b7160e01b600052602160045260246000fd5b9052565b6001600160a01b038b811682528a8116602083015289166040820152606081018890526080810187905261014060a082018190526000906117c38382018961171c565b905082810360c08401526117d7818861171c565b9150508460e08301526117ee61010083018561175e565b8215156101208301529b9a5050505050505050505050565b602081526118206020820183516001600160a01b03169052565b6000602083015161183c60408401826001600160a01b03169052565b5060408301516001600160a01b03811660608401525060608301516080830152608083015160a083015260a08301516101408060c085015261188261016085018361171c565b915060c0850151601f198584030160e086015261189f838261171c565b92505060e08501516101008181870152808701519150506101206118c58187018361175e565b90950151151593019290925250919050565b634e487b7160e01b600052604160045260246000fd5b600082601f8301126118fe57600080fd5b813567ffffffffffffffff80821115611919576119196118d7565b604051601f8301601f19908116603f01168101908282118183101715611941576119416118d7565b8160405283815286602085880101111561195a57600080fd5b836020870160208301376000602085830101528094505050505092915050565b60006020828403121561198c57600080fd5b813567ffffffffffffffff8111156119a357600080fd5b6119af848285016118ed565b949350505050565b80356001600160a01b03811681146119ce57600080fd5b919050565b6000602082840312156119e557600080fd5b6119ee826119b7565b9392505050565b80151581146115d757600080fd5b60008060008060008060c08789031215611a1c57600080fd5b611a25876119b7565b95506020870135945060408701359350606087013567ffffffffffffffff80821115611a5057600080fd5b611a5c8a838b016118ed565b94506080890135915080821115611a7257600080fd5b50611a7f89828a016118ed565b92505060a0870135611a90816119f5565b809150509295509295509295565b60208082526010908201526f125b9d985b1a59081d1c98591948125160821b604082015260600190565b634e487b7160e01b600052601160045260246000fd5b80820180821115611af157611af1611ac8565b92915050565b600060208284031215611b0957600080fd5b81516119ee816119f5565b600181811c90821680611b2857607f821691505b602082108103611b4857634e487b7160e01b600052602260045260246000fd5b50919050565b60008251611b608184602087016116f8565b9190910192915050565b8082028115828204841417611af157611af1611ac8565b600082611b9e57634e487b7160e01b600052601260045260246000fd5b500490565b81810381811115611af157611af1611ac8565b600060018201611bc857611bc8611ac8565b5060010190565b601f821115611c1957600081815260208120601f850160051c81016020861015611bf65750805b601f850160051c820191505b81811015611c1557828155600101611c02565b5050505b505050565b815167ffffffffffffffff811115611c3857611c386118d7565b611c4c81611c468454611b14565b84611bcf565b602080601f831160018114611c815760008415611c695750858301515b600019600386901b1c1916600185901b178555611c15565b600085815260208120601f198616915b82811015611cb057888601518255948401946001909101908401611c91565b5085821015611cce5787850151600019600388901b60f8161c191681555b5050505050600190811b01905550565b8281526040602082015260006119af604083018461171c565b6020815260006119ee602083018461171c56fea2646970667358221220c3c15431aacaa07c5e02d50cede962147f48c882bbc720a3ffac3043d480c92e64736f6c63430008110033",
  "linkReferences": {},
  "deployedLinkReferences": {}
}